{
  "_format": "hh-sol-artifact-1",
  "contractName": "EtherFaucet",
  "sourceName": "contracts/EtherFaucet.sol",
  "abi": [
    {
      "inputs": [
        {
          "internalType": "address",
          "name": "initialOwner",
          "type": "address"
        }
      ],
      "stateMutability": "nonpayable",
      "type": "constructor"
    },
    {
      "inputs": [],
      "name": "EnforcedPause",
      "type": "error"
    },
    {
      "inputs": [],
      "name": "ExpectedPause",
      "type": "error"
    },
    {
      "inputs": [
        {
          "internalType": "address",
          "name": "owner",
          "type": "address"
        }
      ],
      "name": "OwnableInvalidOwner",
      "type": "error"
    },
    {
      "inputs": [
        {
          "internalType": "address",
          "name": "account",
          "type": "address"
        }
      ],
      "name": "OwnableUnauthorizedAccount",
      "type": "error"
    },
    {
      "anonymous": false,
      "inputs": [
        {
          "indexed": true,
          "internalType": "address",
          "name": "from",
          "type": "address"
        },
        {
          "indexed": false,
          "internalType": "uint256",
          "name": "amount",
          "type": "uint256"
        }
      ],
      "name": "Deposit",
      "type": "event"
    },
    {
      "anonymous": false,
      "inputs": [
        {
          "indexed": true,
          "internalType": "address",
          "name": "previousOwner",
          "type": "address"
        },
        {
          "indexed": true,
          "internalType": "address",
          "name": "newOwner",
          "type": "address"
        }
      ],
      "name": "OwnershipTransferred",
      "type": "event"
    },
    {
      "anonymous": false,
      "inputs": [
        {
          "indexed": false,
          "internalType": "address",
          "name": "account",
          "type": "address"
        }
      ],
      "name": "Paused",
      "type": "event"
    },
    {
      "anonymous": false,
      "inputs": [
        {
          "indexed": true,
          "internalType": "address",
          "name": "to",
          "type": "address"
        },
        {
          "indexed": false,
          "internalType": "uint256",
          "name": "amount",
          "type": "uint256"
        }
      ],
      "name": "SendMe",
      "type": "event"
    },
    {
      "anonymous": false,
      "inputs": [
        {
          "indexed": false,
          "internalType": "address",
          "name": "account",
          "type": "address"
        }
      ],
      "name": "Unpaused",
      "type": "event"
    },
    {
      "stateMutability": "payable",
      "type": "fallback"
    },
    {
      "inputs": [],
      "name": "deposit",
      "outputs": [],
      "stateMutability": "payable",
      "type": "function"
    },
    {
      "inputs": [],
      "name": "destroy",
      "outputs": [],
      "stateMutability": "nonpayable",
      "type": "function"
    },
    {
      "inputs": [],
      "name": "getContractAddress",
      "outputs": [
        {
          "internalType": "address",
          "name": "",
          "type": "address"
        }
      ],
      "stateMutability": "view",
      "type": "function"
    },
    {
      "inputs": [],
      "name": "getContractBalance",
      "outputs": [
        {
          "internalType": "uint256",
          "name": "",
          "type": "uint256"
        }
      ],
      "stateMutability": "view",
      "type": "function"
    },
    {
      "inputs": [],
      "name": "getMeBalance",
      "outputs": [
        {
          "internalType": "uint256",
          "name": "",
          "type": "uint256"
        }
      ],
      "stateMutability": "view",
      "type": "function"
    },
    {
      "inputs": [],
      "name": "isOwner",
      "outputs": [
        {
          "internalType": "bool",
          "name": "",
          "type": "bool"
        }
      ],
      "stateMutability": "view",
      "type": "function"
    },
    {
      "inputs": [],
      "name": "owner",
      "outputs": [
        {
          "internalType": "address",
          "name": "",
          "type": "address"
        }
      ],
      "stateMutability": "view",
      "type": "function"
    },
    {
      "inputs": [],
      "name": "pause",
      "outputs": [],
      "stateMutability": "nonpayable",
      "type": "function"
    },
    {
      "inputs": [],
      "name": "paused",
      "outputs": [
        {
          "internalType": "bool",
          "name": "",
          "type": "bool"
        }
      ],
      "stateMutability": "view",
      "type": "function"
    },
    {
      "inputs": [],
      "name": "renounceOwnership",
      "outputs": [],
      "stateMutability": "nonpayable",
      "type": "function"
    },
    {
      "inputs": [],
      "name": "sendMe",
      "outputs": [],
      "stateMutability": "nonpayable",
      "type": "function"
    },
    {
      "inputs": [
        {
          "internalType": "address",
          "name": "newOwner",
          "type": "address"
        }
      ],
      "name": "transferOwnership",
      "outputs": [],
      "stateMutability": "nonpayable",
      "type": "function"
    },
    {
      "inputs": [],
      "name": "unpause",
      "outputs": [],
      "stateMutability": "nonpayable",
      "type": "function"
    },
    {
      "inputs": [
        {
          "internalType": "uint256",
          "name": "_amount",
          "type": "uint256"
        }
      ],
      "name": "updateAmount",
      "outputs": [],
      "stateMutability": "nonpayable",
      "type": "function"
    },
    {
      "inputs": [
        {
          "internalType": "address",
          "name": "_owner",
          "type": "address"
        }
      ],
      "name": "updateOwner",
      "outputs": [],
      "stateMutability": "nonpayable",
      "type": "function"
    },
    {
      "stateMutability": "payable",
      "type": "receive"
    }
  ],
  "bytecode": "0x608060405266038d7ea4c6800060015534801561001b57600080fd5b50604051611067380380611067833981810160405281019061003d9190610207565b80600073ffffffffffffffffffffffffffffffffffffffff168173ffffffffffffffffffffffffffffffffffffffff16036100b05760006040517f1e4fbdf70000000000000000000000000000000000000000000000000000000081526004016100a79190610243565b60405180910390fd5b6100bf816100e060201b60201c565b5060008060146101000a81548160ff0219169083151502179055505061025e565b60008060009054906101000a900473ffffffffffffffffffffffffffffffffffffffff169050816000806101000a81548173ffffffffffffffffffffffffffffffffffffffff021916908373ffffffffffffffffffffffffffffffffffffffff1602179055508173ffffffffffffffffffffffffffffffffffffffff168173ffffffffffffffffffffffffffffffffffffffff167f8be0079c531659141344cd1fd0a4f28419497f9722a3daafe3b4186f6b6457e060405160405180910390a35050565b600080fd5b600073ffffffffffffffffffffffffffffffffffffffff82169050919050565b60006101d4826101a9565b9050919050565b6101e4816101c9565b81146101ef57600080fd5b50565b600081519050610201816101db565b92915050565b60006020828403121561021d5761021c6101a4565b5b600061022b848285016101f2565b91505092915050565b61023d816101c9565b82525050565b60006020820190506102586000830184610234565b92915050565b610dfa8061026d6000396000f3fe6080604052600436106100ec5760003560e01c806383197ef01161008a5780638f32d59b116100595780638f32d59b14610260578063c15fb4dc1461028b578063d0e30db0146102b6578063f2fde38b146102c0576100ed565b806383197ef0146101de5780638456cb59146101f5578063880cdc311461020c5780638da5cb5b14610235576100ed565b80633f4ba83a116100c65780633f4ba83a1461015a5780635c975abb146101715780636f9fb98a1461019c578063715018a6146101c7576100ed565b80632d80d05b146100ef57806332a2c5d01461010657806334d6093d14610131576100ed565b5b005b3480156100fb57600080fd5b506101046102e9565b005b34801561011257600080fd5b5061011b6104a2565b6040516101289190610a3e565b60405180910390f35b34801561013d57600080fd5b5061015860048036038101906101539190610a94565b6104aa565b005b34801561016657600080fd5b5061016f6104bc565b005b34801561017d57600080fd5b506101866104ce565b6040516101939190610adc565b60405180910390f35b3480156101a857600080fd5b506101b16104e4565b6040516101be9190610b06565b60405180910390f35b3480156101d357600080fd5b506101dc6104ec565b005b3480156101ea57600080fd5b506101f3610500565b005b34801561020157600080fd5b5061020a610598565b005b34801561021857600080fd5b50610233600480360381019061022e9190610b4d565b6105aa565b005b34801561024157600080fd5b5061024a6105be565b6040516102579190610a3e565b60405180910390f35b34801561026c57600080fd5b506102756105e7565b6040516102829190610adc565b60405180910390f35b34801561029757600080fd5b506102a0610624565b6040516102ad9190610b06565b60405180910390f35b6102be610643565b005b3480156102cc57600080fd5b506102e760048036038101906102e29190610b4d565b6106de565b005b6102f1610764565b6001544711610335576040517f08c379a000000000000000000000000000000000000000000000000000000000815260040161032c90610bd7565b60405180910390fd5b42610e10600260003373ffffffffffffffffffffffffffffffffffffffff1673ffffffffffffffffffffffffffffffffffffffff168152602001908152602001600020546103839190610c26565b106103c3576040517f08c379a00000000000000000000000000000000000000000000000000000000081526004016103ba90610ca6565b60405180910390fd5b42600260003373ffffffffffffffffffffffffffffffffffffffff1673ffffffffffffffffffffffffffffffffffffffff168152602001908152602001600020819055503373ffffffffffffffffffffffffffffffffffffffff166108fc6001549081150290604051600060405180830381858888f1935050505015801561044f573d6000803e3d6000fd5b503373ffffffffffffffffffffffffffffffffffffffff167f9d88862abb9a4fa73372a364701b722fb4c12f1a56b0d1dcfcdaf3a6668d9d336001546040516104989190610b06565b60405180910390a2565b600030905090565b6104b26107a5565b8060018190555050565b6104c46107a5565b6104cc61082c565b565b60008060149054906101000a900460ff16905090565b600047905090565b6104f46107a5565b6104fe600061088e565b565b6105086107a5565b6105106104ce565b61054f576040517f08c379a000000000000000000000000000000000000000000000000000000000815260040161054690610d38565b60405180910390fd5b3373ffffffffffffffffffffffffffffffffffffffff166108fc479081150290604051600060405180830381858888f19350505050158015610595573d6000803e3d6000fd5b50565b6105a06107a5565b6105a8610952565b565b6105b26107a5565b6105bb816106de565b50565b60008060009054906101000a900473ffffffffffffffffffffffffffffffffffffffff16905090565b60006105f16105be565b73ffffffffffffffffffffffffffffffffffffffff163373ffffffffffffffffffffffffffffffffffffffff1614905090565b60003373ffffffffffffffffffffffffffffffffffffffff1631905090565b61064b610764565b6000341161068e576040517f08c379a000000000000000000000000000000000000000000000000000000000815260040161068590610da4565b60405180910390fd5b3373ffffffffffffffffffffffffffffffffffffffff167fe1fffcc4923d04b559f4d29a8bfc6cda04eb5b0d3c460751c2402c5c5cc9109c346040516106d49190610b06565b60405180910390a2565b6106e66107a5565b600073ffffffffffffffffffffffffffffffffffffffff168173ffffffffffffffffffffffffffffffffffffffff16036107585760006040517f1e4fbdf700000000000000000000000000000000000000000000000000000000815260040161074f9190610a3e565b60405180910390fd5b6107618161088e565b50565b61076c6104ce565b156107a3576040517fd93c066500000000000000000000000000000000000000000000000000000000815260040160405180910390fd5b565b6107ad6109b5565b73ffffffffffffffffffffffffffffffffffffffff166107cb6105be565b73ffffffffffffffffffffffffffffffffffffffff161461082a576107ee6109b5565b6040517f118cdaa70000000000000000000000000000000000000000000000000000000081526004016108219190610a3e565b60405180910390fd5b565b6108346109bd565b60008060146101000a81548160ff0219169083151502179055507f5db9ee0a495bf2e6ff9c91a7834c1ba4fdd244a5e8aa4e537bd38aeae4b073aa6108776109b5565b6040516108849190610a3e565b60405180910390a1565b60008060009054906101000a900473ffffffffffffffffffffffffffffffffffffffff169050816000806101000a81548173ffffffffffffffffffffffffffffffffffffffff021916908373ffffffffffffffffffffffffffffffffffffffff1602179055508173ffffffffffffffffffffffffffffffffffffffff168173ffffffffffffffffffffffffffffffffffffffff167f8be0079c531659141344cd1fd0a4f28419497f9722a3daafe3b4186f6b6457e060405160405180910390a35050565b61095a610764565b6001600060146101000a81548160ff0219169083151502179055507f62e78cea01bee320cd4e420270b5ea74000d11b0c9f74754ebdbfc544b05a25861099e6109b5565b6040516109ab9190610a3e565b60405180910390a1565b600033905090565b6109c56104ce565b6109fb576040517f8dfc202b00000000000000000000000000000000000000000000000000000000815260040160405180910390fd5b565b600073ffffffffffffffffffffffffffffffffffffffff82169050919050565b6000610a28826109fd565b9050919050565b610a3881610a1d565b82525050565b6000602082019050610a536000830184610a2f565b92915050565b600080fd5b6000819050919050565b610a7181610a5e565b8114610a7c57600080fd5b50565b600081359050610a8e81610a68565b92915050565b600060208284031215610aaa57610aa9610a59565b5b6000610ab884828501610a7f565b91505092915050565b60008115159050919050565b610ad681610ac1565b82525050565b6000602082019050610af16000830184610acd565b92915050565b610b0081610a5e565b82525050565b6000602082019050610b1b6000830184610af7565b92915050565b610b2a81610a1d565b8114610b3557600080fd5b50565b600081359050610b4781610b21565b92915050565b600060208284031215610b6357610b62610a59565b5b6000610b7184828501610b38565b91505092915050565b600082825260208201905092915050565b7f4e6f7420656e6f7567682062616c616e63650000000000000000000000000000600082015250565b6000610bc1601283610b7a565b9150610bcc82610b8b565b602082019050919050565b60006020820190508181036000830152610bf081610bb4565b9050919050565b7f4e487b7100000000000000000000000000000000000000000000000000000000600052601160045260246000fd5b6000610c3182610a5e565b9150610c3c83610a5e565b9250828201905080821115610c5457610c53610bf7565b5b92915050565b7f546f6f20736f6f6e000000000000000000000000000000000000000000000000600082015250565b6000610c90600883610b7a565b9150610c9b82610c5a565b602082019050919050565b60006020820190508181036000830152610cbf81610c83565b9050919050565b7f436f6e7472616374206d75737420626520706175736564206265666f7265206460008201527f657374726f79696e670000000000000000000000000000000000000000000000602082015250565b6000610d22602983610b7a565b9150610d2d82610cc6565b604082019050919050565b60006020820190508181036000830152610d5181610d15565b9050919050565b7f4e6f2045746865722073656e7400000000000000000000000000000000000000600082015250565b6000610d8e600d83610b7a565b9150610d9982610d58565b602082019050919050565b60006020820190508181036000830152610dbd81610d81565b905091905056fea2646970667358221220390cf583842ea79bd23b86eeb77f11630870da8c9194c096fa518fba2f4fa05064736f6c634300081c0033",
  "linkReferences": {},
  "deployedLinkReferences": {}
}