{
  "_format": "hh-sol-artifact-1",
  "contractName": "EtherFaucet",
  "sourceName": "contracts/EtherFaucet.sol",
  "abi": [
    {
      "inputs": [
        {
          "internalType": "address",
          "name": "initialOwner",
          "type": "address"
        }
      ],
      "stateMutability": "nonpayable",
      "type": "constructor"
    },
    {
      "inputs": [],
      "name": "EnforcedPause",
      "type": "error"
    },
    {
      "inputs": [],
      "name": "ExpectedPause",
      "type": "error"
    },
    {
      "inputs": [
        {
          "internalType": "address",
          "name": "owner",
          "type": "address"
        }
      ],
      "name": "OwnableInvalidOwner",
      "type": "error"
    },
    {
      "inputs": [
        {
          "internalType": "address",
          "name": "account",
          "type": "address"
        }
      ],
      "name": "OwnableUnauthorizedAccount",
      "type": "error"
    },
    {
      "anonymous": false,
      "inputs": [
        {
          "indexed": true,
          "internalType": "address",
          "name": "from",
          "type": "address"
        },
        {
          "indexed": false,
          "internalType": "uint256",
          "name": "amount",
          "type": "uint256"
        }
      ],
      "name": "Deposit",
      "type": "event"
    },
    {
      "anonymous": false,
      "inputs": [
        {
          "indexed": true,
          "internalType": "address",
          "name": "previousOwner",
          "type": "address"
        },
        {
          "indexed": true,
          "internalType": "address",
          "name": "newOwner",
          "type": "address"
        }
      ],
      "name": "OwnershipTransferred",
      "type": "event"
    },
    {
      "anonymous": false,
      "inputs": [
        {
          "indexed": false,
          "internalType": "address",
          "name": "account",
          "type": "address"
        }
      ],
      "name": "Paused",
      "type": "event"
    },
    {
      "anonymous": false,
      "inputs": [
        {
          "indexed": true,
          "internalType": "address",
          "name": "to",
          "type": "address"
        },
        {
          "indexed": false,
          "internalType": "uint256",
          "name": "amount",
          "type": "uint256"
        }
      ],
      "name": "SendMe",
      "type": "event"
    },
    {
      "anonymous": false,
      "inputs": [
        {
          "indexed": false,
          "internalType": "address",
          "name": "account",
          "type": "address"
        }
      ],
      "name": "Unpaused",
      "type": "event"
    },
    {
      "stateMutability": "payable",
      "type": "fallback"
    },
    {
      "inputs": [],
      "name": "deposit",
      "outputs": [],
      "stateMutability": "payable",
      "type": "function"
    },
    {
      "inputs": [],
      "name": "destroy",
      "outputs": [],
      "stateMutability": "nonpayable",
      "type": "function"
    },
    {
      "inputs": [],
      "name": "getContractAddress",
      "outputs": [
        {
          "internalType": "address",
          "name": "",
          "type": "address"
        }
      ],
      "stateMutability": "view",
      "type": "function"
    },
    {
      "inputs": [],
      "name": "getContractBalance",
      "outputs": [
        {
          "internalType": "uint256",
          "name": "",
          "type": "uint256"
        }
      ],
      "stateMutability": "view",
      "type": "function"
    },
    {
      "inputs": [],
      "name": "getMeBalance",
      "outputs": [
        {
          "internalType": "uint256",
          "name": "",
          "type": "uint256"
        }
      ],
      "stateMutability": "view",
      "type": "function"
    },
    {
      "inputs": [],
      "name": "isOwner",
      "outputs": [
        {
          "internalType": "bool",
          "name": "",
          "type": "bool"
        }
      ],
      "stateMutability": "view",
      "type": "function"
    },
    {
      "inputs": [],
      "name": "owner",
      "outputs": [
        {
          "internalType": "address",
          "name": "",
          "type": "address"
        }
      ],
      "stateMutability": "view",
      "type": "function"
    },
    {
      "inputs": [],
      "name": "pause",
      "outputs": [],
      "stateMutability": "nonpayable",
      "type": "function"
    },
    {
      "inputs": [],
      "name": "paused",
      "outputs": [
        {
          "internalType": "bool",
          "name": "",
          "type": "bool"
        }
      ],
      "stateMutability": "view",
      "type": "function"
    },
    {
      "inputs": [],
      "name": "renounceOwnership",
      "outputs": [],
      "stateMutability": "nonpayable",
      "type": "function"
    },
    {
      "inputs": [],
      "name": "sendMe",
      "outputs": [],
      "stateMutability": "nonpayable",
      "type": "function"
    },
    {
      "inputs": [
        {
          "internalType": "address",
          "name": "newOwner",
          "type": "address"
        }
      ],
      "name": "transferOwnership",
      "outputs": [],
      "stateMutability": "nonpayable",
      "type": "function"
    },
    {
      "inputs": [],
      "name": "unpause",
      "outputs": [],
      "stateMutability": "nonpayable",
      "type": "function"
    },
    {
      "inputs": [
        {
          "internalType": "uint256",
          "name": "_amount",
          "type": "uint256"
        }
      ],
      "name": "updateAmount",
      "outputs": [],
      "stateMutability": "nonpayable",
      "type": "function"
    },
    {
      "inputs": [
        {
          "internalType": "address",
          "name": "_owner",
          "type": "address"
        }
      ],
      "name": "updateOwner",
      "outputs": [],
      "stateMutability": "nonpayable",
      "type": "function"
    },
    {
      "stateMutability": "payable",
      "type": "receive"
    }
  ],
  "bytecode": "0x608060405266038d7ea4c6800060015534801561001b57600080fd5b50604051611078380380611078833981810160405281019061003d9190610207565b80600073ffffffffffffffffffffffffffffffffffffffff168173ffffffffffffffffffffffffffffffffffffffff16036100b05760006040517f1e4fbdf70000000000000000000000000000000000000000000000000000000081526004016100a79190610243565b60405180910390fd5b6100bf816100e060201b60201c565b5060008060146101000a81548160ff0219169083151502179055505061025e565b60008060009054906101000a900473ffffffffffffffffffffffffffffffffffffffff169050816000806101000a81548173ffffffffffffffffffffffffffffffffffffffff021916908373ffffffffffffffffffffffffffffffffffffffff1602179055508173ffffffffffffffffffffffffffffffffffffffff168173ffffffffffffffffffffffffffffffffffffffff167f8be0079c531659141344cd1fd0a4f28419497f9722a3daafe3b4186f6b6457e060405160405180910390a35050565b600080fd5b600073ffffffffffffffffffffffffffffffffffffffff82169050919050565b60006101d4826101a9565b9050919050565b6101e4816101c9565b81146101ef57600080fd5b50565b600081519050610201816101db565b92915050565b60006020828403121561021d5761021c6101a4565b5b600061022b848285016101f2565b91505092915050565b61023d816101c9565b82525050565b60006020820190506102586000830184610234565b92915050565b610e0b8061026d6000396000f3fe6080604052600436106100ec5760003560e01c806383197ef01161008a5780638f32d59b116100595780638f32d59b14610260578063c15fb4dc1461028b578063d0e30db0146102b6578063f2fde38b146102c0576100ed565b806383197ef0146101de5780638456cb59146101f5578063880cdc311461020c5780638da5cb5b14610235576100ed565b80633f4ba83a116100c65780633f4ba83a1461015a5780635c975abb146101715780636f9fb98a1461019c578063715018a6146101c7576100ed565b80632d80d05b146100ef57806332a2c5d01461010657806334d6093d14610131576100ed565b5b005b3480156100fb57600080fd5b506101046102e9565b005b34801561011257600080fd5b5061011b6104a3565b6040516101289190610a4f565b60405180910390f35b34801561013d57600080fd5b5061015860048036038101906101539190610aa5565b6104ab565b005b34801561016657600080fd5b5061016f6104bd565b005b34801561017d57600080fd5b506101866104d7565b6040516101939190610aed565b60405180910390f35b3480156101a857600080fd5b506101b16104ed565b6040516101be9190610b17565b60405180910390f35b3480156101d357600080fd5b506101dc6104f5565b005b3480156101ea57600080fd5b506101f3610509565b005b34801561020157600080fd5b5061020a6105a1565b005b34801561021857600080fd5b50610233600480360381019061022e9190610b5e565b6105bb565b005b34801561024157600080fd5b5061024a6105cf565b6040516102579190610a4f565b60405180910390f35b34801561026c57600080fd5b506102756105f8565b6040516102829190610aed565b60405180910390f35b34801561029757600080fd5b506102a0610635565b6040516102ad9190610b17565b60405180910390f35b6102be610654565b005b3480156102cc57600080fd5b506102e760048036038101906102e29190610b5e565b6106ef565b005b6102f1610775565b6001544711610335576040517f08c379a000000000000000000000000000000000000000000000000000000000815260040161032c90610be8565b60405180910390fd5b4262093a80600260003373ffffffffffffffffffffffffffffffffffffffff1673ffffffffffffffffffffffffffffffffffffffff168152602001908152602001600020546103849190610c37565b106103c4576040517f08c379a00000000000000000000000000000000000000000000000000000000081526004016103bb90610cb7565b60405180910390fd5b42600260003373ffffffffffffffffffffffffffffffffffffffff1673ffffffffffffffffffffffffffffffffffffffff168152602001908152602001600020819055503373ffffffffffffffffffffffffffffffffffffffff166108fc6001549081150290604051600060405180830381858888f19350505050158015610450573d6000803e3d6000fd5b503373ffffffffffffffffffffffffffffffffffffffff167f9d88862abb9a4fa73372a364701b722fb4c12f1a56b0d1dcfcdaf3a6668d9d336001546040516104999190610b17565b60405180910390a2565b600030905090565b6104b36107b6565b8060018190555050565b6104c56107b6565b6104cd61083d565b6104d561087d565b565b60008060149054906101000a900460ff16905090565b600047905090565b6104fd6107b6565b61050760006108df565b565b6105116107b6565b6105196104d7565b610558576040517f08c379a000000000000000000000000000000000000000000000000000000000815260040161054f90610d49565b60405180910390fd5b3373ffffffffffffffffffffffffffffffffffffffff166108fc479081150290604051600060405180830381858888f1935050505015801561059e573d6000803e3d6000fd5b50565b6105a96107b6565b6105b1610775565b6105b96109a3565b565b6105c36107b6565b6105cc816106ef565b50565b60008060009054906101000a900473ffffffffffffffffffffffffffffffffffffffff16905090565b60006106026105cf565b73ffffffffffffffffffffffffffffffffffffffff163373ffffffffffffffffffffffffffffffffffffffff1614905090565b60003373ffffffffffffffffffffffffffffffffffffffff1631905090565b61065c610775565b6000341161069f576040517f08c379a000000000000000000000000000000000000000000000000000000000815260040161069690610db5565b60405180910390fd5b3373ffffffffffffffffffffffffffffffffffffffff167fe1fffcc4923d04b559f4d29a8bfc6cda04eb5b0d3c460751c2402c5c5cc9109c346040516106e59190610b17565b60405180910390a2565b6106f76107b6565b600073ffffffffffffffffffffffffffffffffffffffff168173ffffffffffffffffffffffffffffffffffffffff16036107695760006040517f1e4fbdf70000000000000000000000000000000000000000000000000000000081526004016107609190610a4f565b60405180910390fd5b610772816108df565b50565b61077d6104d7565b156107b4576040517fd93c066500000000000000000000000000000000000000000000000000000000815260040160405180910390fd5b565b6107be610a06565b73ffffffffffffffffffffffffffffffffffffffff166107dc6105cf565b73ffffffffffffffffffffffffffffffffffffffff161461083b576107ff610a06565b6040517f118cdaa70000000000000000000000000000000000000000000000000000000081526004016108329190610a4f565b60405180910390fd5b565b6108456104d7565b61087b576040517f8dfc202b00000000000000000000000000000000000000000000000000000000815260040160405180910390fd5b565b61088561083d565b60008060146101000a81548160ff0219169083151502179055507f5db9ee0a495bf2e6ff9c91a7834c1ba4fdd244a5e8aa4e537bd38aeae4b073aa6108c8610a06565b6040516108d59190610a4f565b60405180910390a1565b60008060009054906101000a900473ffffffffffffffffffffffffffffffffffffffff169050816000806101000a81548173ffffffffffffffffffffffffffffffffffffffff021916908373ffffffffffffffffffffffffffffffffffffffff1602179055508173ffffffffffffffffffffffffffffffffffffffff168173ffffffffffffffffffffffffffffffffffffffff167f8be0079c531659141344cd1fd0a4f28419497f9722a3daafe3b4186f6b6457e060405160405180910390a35050565b6109ab610775565b6001600060146101000a81548160ff0219169083151502179055507f62e78cea01bee320cd4e420270b5ea74000d11b0c9f74754ebdbfc544b05a2586109ef610a06565b6040516109fc9190610a4f565b60405180910390a1565b600033905090565b600073ffffffffffffffffffffffffffffffffffffffff82169050919050565b6000610a3982610a0e565b9050919050565b610a4981610a2e565b82525050565b6000602082019050610a646000830184610a40565b92915050565b600080fd5b6000819050919050565b610a8281610a6f565b8114610a8d57600080fd5b50565b600081359050610a9f81610a79565b92915050565b600060208284031215610abb57610aba610a6a565b5b6000610ac984828501610a90565b91505092915050565b60008115159050919050565b610ae781610ad2565b82525050565b6000602082019050610b026000830184610ade565b92915050565b610b1181610a6f565b82525050565b6000602082019050610b2c6000830184610b08565b92915050565b610b3b81610a2e565b8114610b4657600080fd5b50565b600081359050610b5881610b32565b92915050565b600060208284031215610b7457610b73610a6a565b5b6000610b8284828501610b49565b91505092915050565b600082825260208201905092915050565b7f4e6f7420656e6f7567682062616c616e63650000000000000000000000000000600082015250565b6000610bd2601283610b8b565b9150610bdd82610b9c565b602082019050919050565b60006020820190508181036000830152610c0181610bc5565b9050919050565b7f4e487b7100000000000000000000000000000000000000000000000000000000600052601160045260246000fd5b6000610c4282610a6f565b9150610c4d83610a6f565b9250828201905080821115610c6557610c64610c08565b5b92915050565b7f546f6f20736f6f6e000000000000000000000000000000000000000000000000600082015250565b6000610ca1600883610b8b565b9150610cac82610c6b565b602082019050919050565b60006020820190508181036000830152610cd081610c94565b9050919050565b7f436f6e7472616374206d75737420626520706175736564206265666f7265206460008201527f657374726f79696e670000000000000000000000000000000000000000000000602082015250565b6000610d33602983610b8b565b9150610d3e82610cd7565b604082019050919050565b60006020820190508181036000830152610d6281610d26565b9050919050565b7f4e6f2045746865722073656e7400000000000000000000000000000000000000600082015250565b6000610d9f600d83610b8b565b9150610daa82610d69565b602082019050919050565b60006020820190508181036000830152610dce81610d92565b905091905056fea2646970667358221220deb5efd0f3aae5aaab9d266d8f8a2594bac92c906f324983633f7514c54c8e1064736f6c634300081c0033",
  "linkReferences": {},
  "deployedLinkReferences": {}
}